{
  "contractName": "Airline",
  "abi": [
    {
      "inputs": [],
      "payable": false,
      "stateMutability": "nonpayable",
      "type": "constructor"
    },
    {
      "anonymous": false,
      "inputs": [
        {
          "indexed": true,
          "internalType": "address",
          "name": "customer",
          "type": "address"
        },
        {
          "indexed": false,
          "internalType": "string",
          "name": "name",
          "type": "string"
        },
        {
          "indexed": false,
          "internalType": "uint256",
          "name": "price",
          "type": "uint256"
        }
      ],
      "name": "FlightPurchased",
      "type": "event"
    },
    {
      "constant": true,
      "inputs": [
        {
          "internalType": "address",
          "name": "",
          "type": "address"
        },
        {
          "internalType": "uint256",
          "name": "",
          "type": "uint256"
        }
      ],
      "name": "customerFlights",
      "outputs": [
        {
          "internalType": "string",
          "name": "name",
          "type": "string"
        },
        {
          "internalType": "uint256",
          "name": "price",
          "type": "uint256"
        }
      ],
      "payable": false,
      "stateMutability": "view",
      "type": "function"
    },
    {
      "constant": true,
      "inputs": [
        {
          "internalType": "address",
          "name": "",
          "type": "address"
        }
      ],
      "name": "customerTotalFlights",
      "outputs": [
        {
          "internalType": "uint256",
          "name": "",
          "type": "uint256"
        }
      ],
      "payable": false,
      "stateMutability": "view",
      "type": "function"
    },
    {
      "constant": true,
      "inputs": [
        {
          "internalType": "address",
          "name": "",
          "type": "address"
        }
      ],
      "name": "customers",
      "outputs": [
        {
          "internalType": "uint256",
          "name": "loyaltyPoints",
          "type": "uint256"
        },
        {
          "internalType": "uint256",
          "name": "totalFlights",
          "type": "uint256"
        }
      ],
      "payable": false,
      "stateMutability": "view",
      "type": "function"
    },
    {
      "constant": true,
      "inputs": [
        {
          "internalType": "uint256",
          "name": "",
          "type": "uint256"
        }
      ],
      "name": "flights",
      "outputs": [
        {
          "internalType": "string",
          "name": "name",
          "type": "string"
        },
        {
          "internalType": "uint256",
          "name": "price",
          "type": "uint256"
        }
      ],
      "payable": false,
      "stateMutability": "view",
      "type": "function"
    },
    {
      "constant": true,
      "inputs": [],
      "name": "owner",
      "outputs": [
        {
          "internalType": "address",
          "name": "",
          "type": "address"
        }
      ],
      "payable": false,
      "stateMutability": "view",
      "type": "function"
    },
    {
      "constant": false,
      "inputs": [
        {
          "internalType": "uint256",
          "name": "index",
          "type": "uint256"
        }
      ],
      "name": "buyFlight",
      "outputs": [],
      "payable": true,
      "stateMutability": "payable",
      "type": "function"
    },
    {
      "constant": true,
      "inputs": [],
      "name": "totalFlights",
      "outputs": [
        {
          "internalType": "uint256",
          "name": "",
          "type": "uint256"
        }
      ],
      "payable": false,
      "stateMutability": "view",
      "type": "function"
    },
    {
      "constant": false,
      "inputs": [],
      "name": "redeemLoyaltyPoints",
      "outputs": [],
      "payable": false,
      "stateMutability": "nonpayable",
      "type": "function"
    },
    {
      "constant": true,
      "inputs": [],
      "name": "getRefundableEther",
      "outputs": [
        {
          "internalType": "uint256",
          "name": "",
          "type": "uint256"
        }
      ],
      "payable": false,
      "stateMutability": "view",
      "type": "function"
    },
    {
      "constant": true,
      "inputs": [],
      "name": "getAirlineBalance",
      "outputs": [
        {
          "internalType": "uint256",
          "name": "",
          "type": "uint256"
        }
      ],
      "payable": false,
      "stateMutability": "view",
      "type": "function"
    }
  ],
  "bytecode": "0x60806040526706f05b59d3b200006000553480156200001d57600080fd5b5033600160006101000a81548173ffffffffffffffffffffffffffffffffffffffff021916908373ffffffffffffffffffffffffffffffffffffffff160217905550600260405180604001604052806040518060400160405280601081526020017f5361696e742050657465727362757267000000000000000000000000000000008152508152602001678ac7230489e80000815250908060018154018082558091505090600182039060005260206000209060020201600090919290919091506000820151816000019080519060200190620000fc92919062000467565b5060208201518160010155505050600260405180604001604052806040518060400160405280600681526020017f4d6f73636f77000000000000000000000000000000000000000000000000000081525081526020016798a7d9b8314c0000815250908060018154018082558091505090600182039060005260206000209060020201600090919290919091506000820151816000019080519060200190620001a792919062000467565b5060208201518160010155505050600260405180604001604052806040518060400160405280600681526020017f4265726c696e00000000000000000000000000000000000000000000000000008152508152602001676f05b59d3b2000008152509080600181540180825580915050906001820390600052602060002090600202016000909192909190915060008201518160000190805190602001906200025292919062000467565b5060208201518160010155505050600260405180604001604052806040518060400160405280600581526020017f4d696c616e0000000000000000000000000000000000000000000000000000008152508152602001677ce66c50e2840000815250908060018154018082558091505090600182039060005260206000209060020201600090919290919091506000820151816000019080519060200190620002fd92919062000467565b5060208201518160010155505050600260405180604001604052806040518060400160405280600681526020017f4d6164726964000000000000000000000000000000000000000000000000000081525081526020016753444835ec580000815250908060018154018082558091505090600182039060005260206000209060020201600090919290919091506000820151816000019080519060200190620003a892919062000467565b5060208201518160010155505050600260405180604001604052806040518060400160405280600981526020017f416d7374657264616d00000000000000000000000000000000000000000000008152508152602001676124fee993bc00008152509080600181540180825580915050906001820390600052602060002090600202016000909192909190915060008201518160000190805190602001906200045392919062000467565b506020820151816001015550505062000516565b828054600181600116156101000203166002900490600052602060002090601f016020900481019282601f10620004aa57805160ff1916838001178555620004db565b82800160010185558215620004db579182015b82811115620004da578251825591602001919060010190620004bd565b5b509050620004ea9190620004ee565b5090565b6200051391905b808211156200050f576000816000905550600101620004f5565b5090565b90565b610b7280620005266000396000f3fe6080604052600436106100915760003560e01c80634bf02e7a116100595780634bf02e7a14610241578063819594271461026c5780638da5cb5b14610347578063f269365a1461039e578063f997114f1461040357610091565b80630ca97e481461009657806315ccf70f146100c45780632411ff731461017f57806329cd30b4146101aa578063336989ae146101d5575b600080fd5b6100c2600480360360208110156100ac57600080fd5b810190808035906020019092919050505061041a565b005b3480156100d057600080fd5b506100fd600480360360208110156100e757600080fd5b810190808035906020019092919050505061071b565b6040518080602001838152602001828103825284818151815260200191508051906020019080838360005b83811015610143578082015181840152602081019050610128565b50505050905090810190601f1680156101705780820380516001836020036101000a031916815260200191505b50935050505060405180910390f35b34801561018b57600080fd5b506101946107e4565b6040518082815260200191505060405180910390f35b3480156101b657600080fd5b506101bf610832565b6040518082815260200191505060405180910390f35b3480156101e157600080fd5b50610224600480360360208110156101f857600080fd5b81019080803573ffffffffffffffffffffffffffffffffffffffff169060200190929190505050610894565b604051808381526020018281526020019250505060405180910390f35b34801561024d57600080fd5b506102566108b8565b6040518082815260200191505060405180910390f35b34801561027857600080fd5b506102c56004803603604081101561028f57600080fd5b81019080803573ffffffffffffffffffffffffffffffffffffffff169060200190929190803590602001909291905050506108c5565b6040518080602001838152602001828103825284818151815260200191508051906020019080838360005b8381101561030b5780820151818401526020810190506102f0565b50505050905090810190601f1680156103385780820380516001836020036101000a031916815260200191505b50935050505060405180910390f35b34801561035357600080fd5b5061035c61099b565b604051808273ffffffffffffffffffffffffffffffffffffffff1673ffffffffffffffffffffffffffffffffffffffff16815260200191505060405180910390f35b3480156103aa57600080fd5b506103ed600480360360208110156103c157600080fd5b81019080803573ffffffffffffffffffffffffffffffffffffffff1690602001909291905050506109c1565b6040518082815260200191505060405180910390f35b34801561040f57600080fd5b506104186109d9565b005b610422610a7e565b6002828154811061042f57fe5b9060005260206000209060020201604051806040016040529081600082018054600181600116156101000203166002900480601f0160208091040260200160405190810160405280929190818152602001828054600181600116156101000203166002900480156104e15780601f106104b6576101008083540402835291602001916104e1565b820191906000526020600020905b8154815290600101906020018083116104c457829003601f168201915b5050505050815260200160018201548152505090508060200151341461050657600080fd5b6000600360003373ffffffffffffffffffffffffffffffffffffffff1673ffffffffffffffffffffffffffffffffffffffff16815260200190815260200160002090506005816000016000828254019250508190555060018160010160008282540192505081905550600460003373ffffffffffffffffffffffffffffffffffffffff1673ffffffffffffffffffffffffffffffffffffffff168152602001908152602001600020829080600181540180825580915050906001820390600052602060002090600202016000909192909190915060008201518160000190805190602001906105f6929190610a98565b5060208201518160010155505050600560003373ffffffffffffffffffffffffffffffffffffffff1673ffffffffffffffffffffffffffffffffffffffff168152602001908152602001600020600081548092919060010191905055503373ffffffffffffffffffffffffffffffffffffffff167fd343062feba6048b737baa59c5a45da81e465de14ccd6b73127af789aafade77836000015184602001516040518080602001838152602001828103825284818151815260200191508051906020019080838360005b838110156106db5780820151818401526020810190506106c0565b50505050905090810190601f1680156107085780820380516001836020036101000a031916815260200191505b50935050505060405180910390a2505050565b6002818154811061072857fe5b9060005260206000209060020201600091509050806000018054600181600116156101000203166002900480601f0160208091040260200160405190810160405280929190818152602001828054600181600116156101000203166002900480156107d45780601f106107a9576101008083540402835291602001916107d4565b820191906000526020600020905b8154815290600101906020018083116107b757829003601f168201915b5050505050908060010154905082565b6000600360003373ffffffffffffffffffffffffffffffffffffffff1673ffffffffffffffffffffffffffffffffffffffff1681526020019081526020016000206000015460005402905090565b6000600160009054906101000a900473ffffffffffffffffffffffffffffffffffffffff1673ffffffffffffffffffffffffffffffffffffffff163373ffffffffffffffffffffffffffffffffffffffff161461088e57600080fd5b47905090565b60036020528060005260406000206000915090508060000154908060010154905082565b6000600280549050905090565b600460205281600052604060002081815481106108de57fe5b906000526020600020906002020160009150915050806000018054600181600116156101000203166002900480601f01602080910402602001604051908101604052809291908181526020018280546001816001161561010002031660029004801561098b5780601f106109605761010080835404028352916020019161098b565b820191906000526020600020905b81548152906001019060200180831161096e57829003601f168201915b5050505050908060010154905082565b600160009054906101000a900473ffffffffffffffffffffffffffffffffffffffff1681565b60056020528060005260406000206000915090505481565b6000600360003373ffffffffffffffffffffffffffffffffffffffff1673ffffffffffffffffffffffffffffffffffffffff1681526020019081526020016000209050600081600001546000540290503373ffffffffffffffffffffffffffffffffffffffff166108fc829081150290604051600060405180830381858888f19350505050158015610a6f573d6000803e3d6000fd5b50600082600001819055505050565b604051806040016040528060608152602001600081525090565b828054600181600116156101000203166002900490600052602060002090601f016020900481019282601f10610ad957805160ff1916838001178555610b07565b82800160010185558215610b07579182015b82811115610b06578251825591602001919060010190610aeb565b5b509050610b149190610b18565b5090565b610b3a91905b80821115610b36576000816000905550600101610b1e565b5090565b9056fea265627a7a72315820c68788e148821e16e50bfeffaa8c098435a51840d70d5b0eedce09b1aaa4873264736f6c63430005100032",
  "source": "// SPDX-License-Identifier: MIT\npragma solidity >=0.4.21 <0.7.0;\n\ncontract Airline {\n\n    uint etherPerPoint = 0.5 ether;\n    \n    struct Flight {\n\n        string name;\n        uint price;\n    }\n\n    struct Customer {\n\n        uint loyaltyPoints;\n        uint totalFlights;\n    }\n\n    address public owner;\n    Flight[] public flights;\n    mapping (address => Customer) public customers;\n    mapping (address => Flight[]) public customerFlights;\n    mapping (address => uint) public customerTotalFlights;\n\n    event FlightPurchased(address indexed customer, string name, uint price);\n\n    constructor() public {\n        owner = msg.sender;\n        flights.push(Flight('Saint Petersburg', 10 ether));\n        flights.push(Flight('Moscow', 11 ether));\n        flights.push(Flight('Berlin', 8 ether));\n        flights.push(Flight('Milan', 9 ether));\n        flights.push(Flight('Madrid', 6 ether));\n        flights.push(Flight('Amsterdam', 7 ether));\n    }\n\n    function buyFlight(uint index) public payable {\n        Flight memory flight = flights[index];\n        require(msg.value == flight.price);\n        Customer storage customer = customers[msg.sender];\n        customer.loyaltyPoints += 5;\n        customer.totalFlights += 1;\n        customerFlights[msg.sender].push(flight);\n        customerTotalFlights[msg.sender]++;\n        emit FlightPurchased(msg.sender, flight.name, flight.price);\n    }\n\n    function totalFlights() public view returns (uint) {\n        return flights.length;\n    }\n\n    function redeemLoyaltyPoints() public { \n        Customer storage customer = customers[msg.sender];\n        uint etherToRefund = etherPerPoint * customer.loyaltyPoints;\n        msg.sender.transfer(etherToRefund);\n        customer.loyaltyPoints = 0;\n    }\n\n    function getRefundableEther() public view returns (uint) {\n        return etherPerPoint * customers[msg.sender].loyaltyPoints;\n    }\n\n    function getAirlineBalance() public isOwner view returns (uint) {\n        return address(this).balance;\n    }\n\n    modifier isOwner() {\n        require(msg.sender == owner);\n        _;\n    }\n}\n",
  "sourcePath": "/Users/cristian/Developer/ethereum/airline/contracts/Airline.sol",
  "compiler": {
    "name": "solc",
    "version": "0.5.16+commit.9c3226ce.Emscripten.clang"
  },
  "schemaVersion": "3.4.3",
  "updatedAt": "2021-10-28T02:51:29.065Z",
  "networkType": "ethereum",
  "devdoc": {
    "methods": {}
  },
  "userdoc": {
    "methods": {}
  }
}