{
  "contractName": "Airline",
  "abi": [
    {
      "constant": true,
      "inputs": [
        {
          "name": "",
          "type": "uint256"
        }
      ],
      "name": "flights",
      "outputs": [
        {
          "name": "name",
          "type": "string"
        },
        {
          "name": "price",
          "type": "uint256"
        }
      ],
      "payable": false,
      "stateMutability": "view",
      "type": "function"
    },
    {
      "constant": true,
      "inputs": [
        {
          "name": "",
          "type": "address"
        }
      ],
      "name": "customers",
      "outputs": [
        {
          "name": "loyaltyPoints",
          "type": "uint256"
        },
        {
          "name": "totalFlights",
          "type": "uint256"
        }
      ],
      "payable": false,
      "stateMutability": "view",
      "type": "function"
    },
    {
      "constant": true,
      "inputs": [
        {
          "name": "",
          "type": "address"
        },
        {
          "name": "",
          "type": "uint256"
        }
      ],
      "name": "customerFlights",
      "outputs": [
        {
          "name": "name",
          "type": "string"
        },
        {
          "name": "price",
          "type": "uint256"
        }
      ],
      "payable": false,
      "stateMutability": "view",
      "type": "function"
    },
    {
      "constant": true,
      "inputs": [],
      "name": "owner",
      "outputs": [
        {
          "name": "",
          "type": "address"
        }
      ],
      "payable": false,
      "stateMutability": "view",
      "type": "function"
    },
    {
      "constant": true,
      "inputs": [
        {
          "name": "",
          "type": "address"
        }
      ],
      "name": "customerTotalFlights",
      "outputs": [
        {
          "name": "",
          "type": "uint256"
        }
      ],
      "payable": false,
      "stateMutability": "view",
      "type": "function"
    },
    {
      "inputs": [],
      "payable": false,
      "stateMutability": "nonpayable",
      "type": "constructor"
    },
    {
      "anonymous": false,
      "inputs": [
        {
          "indexed": true,
          "name": "customer",
          "type": "address"
        },
        {
          "indexed": false,
          "name": "price",
          "type": "uint256"
        }
      ],
      "name": "FlightPurchased",
      "type": "event"
    },
    {
      "constant": false,
      "inputs": [
        {
          "name": "index",
          "type": "uint256"
        }
      ],
      "name": "buyFlight",
      "outputs": [],
      "payable": true,
      "stateMutability": "payable",
      "type": "function"
    },
    {
      "constant": true,
      "inputs": [],
      "name": "totalFlights",
      "outputs": [
        {
          "name": "",
          "type": "uint256"
        }
      ],
      "payable": false,
      "stateMutability": "view",
      "type": "function"
    },
    {
      "constant": false,
      "inputs": [],
      "name": "redeemLoyaltyPoints",
      "outputs": [],
      "payable": false,
      "stateMutability": "nonpayable",
      "type": "function"
    },
    {
      "constant": true,
      "inputs": [],
      "name": "getRefundableEther",
      "outputs": [
        {
          "name": "",
          "type": "uint256"
        }
      ],
      "payable": false,
      "stateMutability": "view",
      "type": "function"
    },
    {
      "constant": true,
      "inputs": [],
      "name": "getAirlineBalance",
      "outputs": [
        {
          "name": "",
          "type": "uint256"
        }
      ],
      "payable": false,
      "stateMutability": "view",
      "type": "function"
    }
  ],
  "bytecode": "0x60806040526706f05b59d3b200006000553480156200001d57600080fd5b5033600160006101000a81548173ffffffffffffffffffffffffffffffffffffffff021916908373ffffffffffffffffffffffffffffffffffffffff160217905550600260408051908101604052806040805190810160405280601081526020017f5361696e742050657465727362757267000000000000000000000000000000008152508152602001678ac7230489e80000815250908060018154018082558091505090600182039060005260206000209060020201600090919290919091506000820151816000019080519060200190620000fc92919062000467565b5060208201518160010155505050600260408051908101604052806040805190810160405280600681526020017f4d6f73636f77000000000000000000000000000000000000000000000000000081525081526020016798a7d9b8314c0000815250908060018154018082558091505090600182039060005260206000209060020201600090919290919091506000820151816000019080519060200190620001a792919062000467565b5060208201518160010155505050600260408051908101604052806040805190810160405280600681526020017f4265726c696e00000000000000000000000000000000000000000000000000008152508152602001676f05b59d3b2000008152509080600181540180825580915050906001820390600052602060002090600202016000909192909190915060008201518160000190805190602001906200025292919062000467565b5060208201518160010155505050600260408051908101604052806040805190810160405280600581526020017f4d696c616e0000000000000000000000000000000000000000000000000000008152508152602001677ce66c50e2840000815250908060018154018082558091505090600182039060005260206000209060020201600090919290919091506000820151816000019080519060200190620002fd92919062000467565b5060208201518160010155505050600260408051908101604052806040805190810160405280600681526020017f4d6164726964000000000000000000000000000000000000000000000000000081525081526020016753444835ec580000815250908060018154018082558091505090600182039060005260206000209060020201600090919290919091506000820151816000019080519060200190620003a892919062000467565b5060208201518160010155505050600260408051908101604052806040805190810160405280600981526020017f416d7374657264616d00000000000000000000000000000000000000000000008152508152602001676124fee993bc00008152509080600181540180825580915050906001820390600052602060002090600202016000909192909190915060008201518160000190805190602001906200045392919062000467565b506020820151816001015550505062000516565b828054600181600116156101000203166002900490600052602060002090601f016020900481019282601f10620004aa57805160ff1916838001178555620004db565b82800160010185558215620004db579182015b82811115620004da578251825591602001919060010190620004bd565b5b509050620004ea9190620004ee565b5090565b6200051391905b808211156200050f576000816000905550600101620004f5565b5090565b90565b610a9380620005266000396000f3006080604052600436106100a4576000357c0100000000000000000000000000000000000000000000000000000000900463ffffffff1680630ca97e48146100a957806315ccf70f146100c95780632411ff731461017657806329cd30b4146101a1578063336989ae146101cc5780634bf02e7a1461022a57806381959427146102555780638da5cb5b14610322578063f269365a14610379578063f997114f146103d0575b600080fd5b6100c7600480360381019080803590602001909291905050506103e7565b005b3480156100d557600080fd5b506100f460048036038101908080359060200190929190505050610629565b6040518080602001838152602001828103825284818151815260200191508051906020019080838360005b8381101561013a57808201518184015260208101905061011f565b50505050905090810190601f1680156101675780820380516001836020036101000a031916815260200191505b50935050505060405180910390f35b34801561018257600080fd5b5061018b6106f4565b6040518082815260200191505060405180910390f35b3480156101ad57600080fd5b506101b6610742565b6040518082815260200191505060405180910390f35b3480156101d857600080fd5b5061020d600480360381019080803573ffffffffffffffffffffffffffffffffffffffff1690602001909291905050506107bd565b604051808381526020018281526020019250505060405180910390f35b34801561023657600080fd5b5061023f6107e1565b6040518082815260200191505060405180910390f35b34801561026157600080fd5b506102a0600480360381019080803573ffffffffffffffffffffffffffffffffffffffff169060200190929190803590602001909291905050506107ee565b6040518080602001838152602001828103825284818151815260200191508051906020019080838360005b838110156102e65780820151818401526020810190506102cb565b50505050905090810190601f1680156103135780820380516001836020036101000a031916815260200191505b50935050505060405180910390f35b34801561032e57600080fd5b506103376108c6565b604051808273ffffffffffffffffffffffffffffffffffffffff1673ffffffffffffffffffffffffffffffffffffffff16815260200191505060405180910390f35b34801561038557600080fd5b506103ba600480360381019080803573ffffffffffffffffffffffffffffffffffffffff1690602001909291905050506108ec565b6040518082815260200191505060405180910390f35b3480156103dc57600080fd5b506103e5610904565b005b6103ef6109a8565b600060028381548110151561040057fe5b9060005260206000209060020201604080519081016040529081600082018054600181600116156101000203166002900480601f0160208091040260200160405190810160405280929190818152602001828054600181600116156101000203166002900480156104b25780601f10610487576101008083540402835291602001916104b2565b820191906000526020600020905b81548152906001019060200180831161049557829003601f168201915b5050505050815260200160018201548152505091508160200151341415156104d957600080fd5b600360003373ffffffffffffffffffffffffffffffffffffffff1673ffffffffffffffffffffffffffffffffffffffff16815260200190815260200160002090506005816000016000828254019250508190555060018160010160008282540192505081905550600460003373ffffffffffffffffffffffffffffffffffffffff1673ffffffffffffffffffffffffffffffffffffffff168152602001908152602001600020829080600181540180825580915050906001820390600052602060002090600202016000909192909190915060008201518160000190805190602001906105c79291906109c2565b5060208201518160010155505050600560003373ffffffffffffffffffffffffffffffffffffffff1673ffffffffffffffffffffffffffffffffffffffff16815260200190815260200160002060008154809291906001019190505550505050565b60028181548110151561063857fe5b9060005260206000209060020201600091509050806000018054600181600116156101000203166002900480601f0160208091040260200160405190810160405280929190818152602001828054600181600116156101000203166002900480156106e45780601f106106b9576101008083540402835291602001916106e4565b820191906000526020600020905b8154815290600101906020018083116106c757829003601f168201915b5050505050908060010154905082565b6000600360003373ffffffffffffffffffffffffffffffffffffffff1673ffffffffffffffffffffffffffffffffffffffff1681526020019081526020016000206000015460005402905090565b6000600160009054906101000a900473ffffffffffffffffffffffffffffffffffffffff1673ffffffffffffffffffffffffffffffffffffffff163373ffffffffffffffffffffffffffffffffffffffff161415156107a057600080fd5b3073ffffffffffffffffffffffffffffffffffffffff1631905090565b60036020528060005260406000206000915090508060000154908060010154905082565b6000600280549050905090565b60046020528160005260406000208181548110151561080957fe5b906000526020600020906002020160009150915050806000018054600181600116156101000203166002900480601f0160208091040260200160405190810160405280929190818152602001828054600181600116156101000203166002900480156108b65780601f1061088b576101008083540402835291602001916108b6565b820191906000526020600020905b81548152906001019060200180831161089957829003601f168201915b5050505050908060010154905082565b600160009054906101000a900473ffffffffffffffffffffffffffffffffffffffff1681565b60056020528060005260406000206000915090505481565b600080600360003373ffffffffffffffffffffffffffffffffffffffff1673ffffffffffffffffffffffffffffffffffffffff168152602001908152602001600020915081600001546000540290503373ffffffffffffffffffffffffffffffffffffffff166108fc829081150290604051600060405180830381858888f19350505050158015610999573d6000803e3d6000fd5b50600082600001819055505050565b604080519081016040528060608152602001600081525090565b828054600181600116156101000203166002900490600052602060002090601f016020900481019282601f10610a0357805160ff1916838001178555610a31565b82800160010185558215610a31579182015b82811115610a30578251825591602001919060010190610a15565b5b509050610a3e9190610a42565b5090565b610a6491905b80821115610a60576000816000905550600101610a48565b5090565b905600a165627a7a72305820caef27a3dcfb3fb0859842699aa4347170e189e976d3849106f21c4949c26d760029",
  "source": "// SPDX-License-Identifier: MIT\npragma solidity >=0.4.21 <0.7.0;\n\ncontract Airline {\n\n    uint etherPerPoint = 0.5 ether;\n    \n    struct Flight {\n\n        string name;\n        uint price;\n    }\n\n    struct Customer {\n\n        uint loyaltyPoints;\n        uint totalFlights;\n    }\n\n    address public owner;\n    Flight[] public flights;\n    mapping (address => Customer) public customers;\n    mapping (address => Flight[]) public customerFlights;\n    mapping (address => uint) public customerTotalFlights;\n\n    event FlightPurchased(address indexed customer, uint price);\n\n    constructor() public {\n        owner = msg.sender;\n        flights.push(Flight('Saint Petersburg', 10 ether));\n        flights.push(Flight('Moscow', 11 ether));\n        flights.push(Flight('Berlin', 8 ether));\n        flights.push(Flight('Milan', 9 ether));\n        flights.push(Flight('Madrid', 6 ether));\n        flights.push(Flight('Amsterdam', 7 ether));\n    }\n\n    function buyFlight(uint index) public payable {\n        Flight memory flight = flights[index];\n        require(msg.value == flight.price);\n        Customer storage customer = customers[msg.sender];\n        customer.loyaltyPoints += 5;\n        customer.totalFlights += 1;\n        customerFlights[msg.sender].push(flight);\n        customerTotalFlights[msg.sender]++;\n        // FlightPurchased(msg.sender, flight.price);\n    }\n\n    function totalFlights() public view returns (uint) {\n        return flights.length;\n    }\n\n    function redeemLoyaltyPoints() public { \n        Customer storage customer = customers[msg.sender];\n        uint etherToRefund = etherPerPoint * customer.loyaltyPoints;\n        msg.sender.transfer(etherToRefund);\n        customer.loyaltyPoints = 0;\n    }\n\n    function getRefundableEther() public view returns (uint) {\n        return etherPerPoint * customers[msg.sender].loyaltyPoints;\n    }\n\n    function getAirlineBalance() public isOwner view returns (uint) {\n        return address(this).balance;\n    }\n\n    modifier isOwner() {\n        require(msg.sender == owner);\n        _;\n    }\n}\n",
  "sourcePath": "/Users/cristian/Developer/ethereum/airline/contracts/Airline.sol",
  "compiler": {
    "name": "solc",
    "version": "0.4.25+commit.59dbf8f1.Emscripten.clang"
  },
  "schemaVersion": "3.4.3",
  "updatedAt": "2021-10-25T22:18:12.692Z",
  "networkType": "ethereum"
}